{
  "transactions": [
    {
      "hash": "0xab4c698fbdc5e375ef69420fd521db09b2833117850cb2af7a7f509b00257c1a",
      "transactionType": "CALL",
      "contractName": null,
      "contractAddress": "0x1f89b0ba4ce081530e716e7b2336f11f4745d40e",
      "function": "addPair(address,address)",
      "arguments": [
        "0xd8dA6BF26964aF9D7eEd9e03E53415D37aA96045",
        "0x0000000000000000000000000000000000000001"
      ],
      "transaction": {
        "from": "0xc44f6deefebbccd68d7f82b75d375fd89170e968",
        "to": "0x1f89b0ba4ce081530e716e7b2336f11f4745d40e",
        "gas": "0x1b41d",
        "value": "0x0",
        "input": "0xb6f3e087000000000000000000000000d8da6bf26964af9d7eed9e03e53415d37aa960450000000000000000000000000000000000000000000000000000000000000001",
        "nonce": "0x5",
        "chainId": "0x1"
      },
      "additionalContracts": [],
      "isFixedGasLimit": false
    },
    {
      "hash": "0x134110d485719d9a2ed0d6ab6a41f53158f352e06ed34df657dc3f90882aae5c",
      "transactionType": "CALL",
      "contractName": null,
      "contractAddress": "0x1f89b0ba4ce081530e716e7b2336f11f4745d40e",
      "function": "addPair(address,address)",
      "arguments": [
        "0xd8dA6BF26964aF9D7eEd9e03E53415D37aA96045",
        "0x0000000000000000000000000000000000000002"
      ],
      "transaction": {
        "from": "0xc44f6deefebbccd68d7f82b75d375fd89170e968",
        "to": "0x1f89b0ba4ce081530e716e7b2336f11f4745d40e",
        "gas": "0x1b41d",
        "value": "0x0",
        "input": "0xb6f3e087000000000000000000000000d8da6bf26964af9d7eed9e03e53415d37aa960450000000000000000000000000000000000000000000000000000000000000002",
        "nonce": "0x6",
        "chainId": "0x1"
      },
      "additionalContracts": [],
      "isFixedGasLimit": false
    },
    {
      "hash": "0x9f1b7be175d6a7090e93f2cf90279f91881cc657cb5db935ade774135143304c",
      "transactionType": "CALL",
      "contractName": null,
      "contractAddress": "0x1f89b0ba4ce081530e716e7b2336f11f4745d40e",
      "function": "addPair(address,address)",
      "arguments": [
        "0xd8dA6BF26964aF9D7eEd9e03E53415D37aA96045",
        "0x0000000000000000000000000000000000000003"
      ],
      "transaction": {
        "from": "0xc44f6deefebbccd68d7f82b75d375fd89170e968",
        "to": "0x1f89b0ba4ce081530e716e7b2336f11f4745d40e",
        "gas": "0x1b41d",
        "value": "0x0",
        "input": "0xb6f3e087000000000000000000000000d8da6bf26964af9d7eed9e03e53415d37aa960450000000000000000000000000000000000000000000000000000000000000003",
        "nonce": "0x7",
        "chainId": "0x1"
      },
      "additionalContracts": [],
      "isFixedGasLimit": false
    }
  ],
  "receipts": [
    {
      "status": "0x1",
      "cumulativeGasUsed": "0x70f432",
      "logs": [],
      "logsBloom": "0x00000000000000000000000000000000000000000000000000000000000000000000000000000000000000000000000000000000000000000000000000000000000000000000000000000000000000000000000000000000000000000000000000000000000000000000000000000000000000000000000000000000000000000000000000000000000000000000000000000000000000000000000000000000000000000000000000000000000000000000000000000000000000000000000000000000000000000000000000000000000000000000000000000000000000000000000000000000000000000000000000000000000000000000000000000000",
      "type": "0x0",
      "transactionHash": "0xab4c698fbdc5e375ef69420fd521db09b2833117850cb2af7a7f509b00257c1a",
      "transactionIndex": "0x6d",
      "blockHash": "0x7d3337f28fe211fe84776e758fe7adb66e855f3fe4da0666c883ff46bcfd070b",
      "blockNumber": "0x16a816b",
      "gasUsed": "0x12a33",
      "effectiveGasPrice": "0x4d75dd5",
      "from": "0xc44f6deefebbccd68d7f82b75d375fd89170e968",
      "to": "0x1f89b0ba4ce081530e716e7b2336f11f4745d40e",
      "contractAddress": null
    },
    {
      "status": "0x1",
      "cumulativeGasUsed": "0xa36d76",
      "logs": [],
      "logsBloom": "0x00000000000000000000000000000000000000000000000000000000000000000000000000000000000000000000000000000000000000000000000000000000000000000000000000000000000000000000000000000000000000000000000000000000000000000000000000000000000000000000000000000000000000000000000000000000000000000000000000000000000000000000000000000000000000000000000000000000000000000000000000000000000000000000000000000000000000000000000000000000000000000000000000000000000000000000000000000000000000000000000000000000000000000000000000000000",
      "type": "0x0",
      "transactionHash": "0x134110d485719d9a2ed0d6ab6a41f53158f352e06ed34df657dc3f90882aae5c",
      "transactionIndex": "0x94",
      "blockHash": "0xb14c8d36ffa2ef37c9778b3abf32dc47bf8374df2a419505785ff729ad2e49af",
      "blockNumber": "0x16a816c",
      "gasUsed": "0x12a33",
      "effectiveGasPrice": "0x4d75dd5",
      "from": "0xc44f6deefebbccd68d7f82b75d375fd89170e968",
      "to": "0x1f89b0ba4ce081530e716e7b2336f11f4745d40e",
      "contractAddress": null
    },
    {
      "status": "0x1",
      "cumulativeGasUsed": "0xa497a9",
      "logs": [],
      "logsBloom": "0x00000000000000000000000000000000000000000000000000000000000000000000000000000000000000000000000000000000000000000000000000000000000000000000000000000000000000000000000000000000000000000000000000000000000000000000000000000000000000000000000000000000000000000000000000000000000000000000000000000000000000000000000000000000000000000000000000000000000000000000000000000000000000000000000000000000000000000000000000000000000000000000000000000000000000000000000000000000000000000000000000000000000000000000000000000000",
      "type": "0x0",
      "transactionHash": "0x9f1b7be175d6a7090e93f2cf90279f91881cc657cb5db935ade774135143304c",
      "transactionIndex": "0x95",
      "blockHash": "0xb14c8d36ffa2ef37c9778b3abf32dc47bf8374df2a419505785ff729ad2e49af",
      "blockNumber": "0x16a816c",
      "gasUsed": "0x12a33",
      "effectiveGasPrice": "0x4d75dd5",
      "from": "0xc44f6deefebbccd68d7f82b75d375fd89170e968",
      "to": "0x1f89b0ba4ce081530e716e7b2336f11f4745d40e",
      "contractAddress": null
    }
  ],
  "libraries": [],
  "pending": [],
  "returns": {},
  "timestamp": 1762636549733,
  "chain": 1,
  "commit": null
}