{
  "transactions": [
    {
      "hash": "0x5c2e7a2c665395ad7b010db26521fc08a12ae5c43cee5fcaea2ee90fb68d46e3",
      "transactionType": "CALL",
      "contractName": null,
      "contractAddress": "0x1f89b0ba4ce081530e716e7b2336f11f4745d40e",
      "function": "addPair(address,address)",
      "arguments": [
        "0xC44F6deeFebBCcd68d7f82B75D375FD89170e968",
        "0x1111111111111111111111111111111111111111"
      ],
      "transaction": {
        "from": "0xc44f6deefebbccd68d7f82b75d375fd89170e968",
        "to": "0x1f89b0ba4ce081530e716e7b2336f11f4745d40e",
        "gas": "0x255a3",
        "value": "0x0",
        "input": "0xb6f3e087000000000000000000000000c44f6deefebbccd68d7f82b75d375fd89170e9680000000000000000000000001111111111111111111111111111111111111111",
        "nonce": "0x3",
        "chainId": "0x1"
      },
      "additionalContracts": [],
      "isFixedGasLimit": false
    }
  ],
  "receipts": [
    {
      "status": "0x1",
      "cumulativeGasUsed": "0x106c971",
      "logs": [],
      "logsBloom": "0x00000000000000000000000000000000000000000000000000000000000000000000000000000000000000000000000000000000000000000000000000000000000000000000000000000000000000000000000000000000000000000000000000000000000000000000000000000000000000000000000000000000000000000000000000000000000000000000000000000000000000000000000000000000000000000000000000000000000000000000000000000000000000000000000000000000000000000000000000000000000000000000000000000000000000000000000000000000000000000000000000000000000000000000000000000000",
      "type": "0x0",
      "transactionHash": "0x5c2e7a2c665395ad7b010db26521fc08a12ae5c43cee5fcaea2ee90fb68d46e3",
      "transactionIndex": "0x9b",
      "blockHash": "0x833e4b4278a70896c94b35fcee20aedf31eb808dd127eac7d9c38872e20965d0",
      "blockNumber": "0x16a7862",
      "gasUsed": "0x1b0af",
      "effectiveGasPrice": "0xab0735f",
      "from": "0xc44f6deefebbccd68d7f82b75d375fd89170e968",
      "to": "0x1f89b0ba4ce081530e716e7b2336f11f4745d40e",
      "contractAddress": null
    }
  ],
  "libraries": [],
  "pending": [],
  "returns": {},
  "timestamp": 1762608662263,
  "chain": 1,
  "commit": null
}